{
  "contractName": "VicenteToken",
  "abi": [
    {
      "inputs": [
        {
          "internalType": "uint256",
          "name": "_initialSupply",
          "type": "uint256"
        }
      ],
      "stateMutability": "nonpayable",
      "type": "constructor"
    },
    {
      "anonymous": false,
      "inputs": [
        {
          "indexed": true,
          "internalType": "address",
          "name": "owner",
          "type": "address"
        },
        {
          "indexed": true,
          "internalType": "address",
          "name": "spender",
          "type": "address"
        },
        {
          "indexed": false,
          "internalType": "uint256",
          "name": "value",
          "type": "uint256"
        }
      ],
      "name": "Approval",
      "type": "event"
    },
    {
      "anonymous": false,
      "inputs": [
        {
          "indexed": true,
          "internalType": "address",
          "name": "previousOwner",
          "type": "address"
        },
        {
          "indexed": true,
          "internalType": "address",
          "name": "newOwner",
          "type": "address"
        }
      ],
      "name": "OwnershipTransferred",
      "type": "event"
    },
    {
      "anonymous": false,
      "inputs": [
        {
          "indexed": false,
          "internalType": "address",
          "name": "account",
          "type": "address"
        }
      ],
      "name": "Paused",
      "type": "event"
    },
    {
      "anonymous": false,
      "inputs": [
        {
          "indexed": true,
          "internalType": "address",
          "name": "from",
          "type": "address"
        },
        {
          "indexed": true,
          "internalType": "address",
          "name": "to",
          "type": "address"
        },
        {
          "indexed": false,
          "internalType": "uint256",
          "name": "value",
          "type": "uint256"
        }
      ],
      "name": "Transfer",
      "type": "event"
    },
    {
      "anonymous": false,
      "inputs": [
        {
          "indexed": false,
          "internalType": "address",
          "name": "account",
          "type": "address"
        }
      ],
      "name": "Unpaused",
      "type": "event"
    },
    {
      "inputs": [
        {
          "internalType": "address",
          "name": "owner",
          "type": "address"
        },
        {
          "internalType": "address",
          "name": "spender",
          "type": "address"
        }
      ],
      "name": "allowance",
      "outputs": [
        {
          "internalType": "uint256",
          "name": "",
          "type": "uint256"
        }
      ],
      "stateMutability": "view",
      "type": "function"
    },
    {
      "inputs": [
        {
          "internalType": "address",
          "name": "spender",
          "type": "address"
        },
        {
          "internalType": "uint256",
          "name": "amount",
          "type": "uint256"
        }
      ],
      "name": "approve",
      "outputs": [
        {
          "internalType": "bool",
          "name": "",
          "type": "bool"
        }
      ],
      "stateMutability": "nonpayable",
      "type": "function"
    },
    {
      "inputs": [
        {
          "internalType": "address",
          "name": "account",
          "type": "address"
        }
      ],
      "name": "balanceOf",
      "outputs": [
        {
          "internalType": "uint256",
          "name": "",
          "type": "uint256"
        }
      ],
      "stateMutability": "view",
      "type": "function"
    },
    {
      "inputs": [
        {
          "internalType": "uint256",
          "name": "amount",
          "type": "uint256"
        }
      ],
      "name": "burn",
      "outputs": [],
      "stateMutability": "nonpayable",
      "type": "function"
    },
    {
      "inputs": [
        {
          "internalType": "address",
          "name": "account",
          "type": "address"
        },
        {
          "internalType": "uint256",
          "name": "amount",
          "type": "uint256"
        }
      ],
      "name": "burnFrom",
      "outputs": [],
      "stateMutability": "nonpayable",
      "type": "function"
    },
    {
      "inputs": [],
      "name": "decimals",
      "outputs": [
        {
          "internalType": "uint8",
          "name": "",
          "type": "uint8"
        }
      ],
      "stateMutability": "view",
      "type": "function"
    },
    {
      "inputs": [
        {
          "internalType": "address",
          "name": "spender",
          "type": "address"
        },
        {
          "internalType": "uint256",
          "name": "subtractedValue",
          "type": "uint256"
        }
      ],
      "name": "decreaseAllowance",
      "outputs": [
        {
          "internalType": "bool",
          "name": "",
          "type": "bool"
        }
      ],
      "stateMutability": "nonpayable",
      "type": "function"
    },
    {
      "inputs": [
        {
          "internalType": "address",
          "name": "spender",
          "type": "address"
        },
        {
          "internalType": "uint256",
          "name": "addedValue",
          "type": "uint256"
        }
      ],
      "name": "increaseAllowance",
      "outputs": [
        {
          "internalType": "bool",
          "name": "",
          "type": "bool"
        }
      ],
      "stateMutability": "nonpayable",
      "type": "function"
    },
    {
      "inputs": [],
      "name": "name",
      "outputs": [
        {
          "internalType": "string",
          "name": "",
          "type": "string"
        }
      ],
      "stateMutability": "view",
      "type": "function"
    },
    {
      "inputs": [],
      "name": "owner",
      "outputs": [
        {
          "internalType": "address",
          "name": "",
          "type": "address"
        }
      ],
      "stateMutability": "view",
      "type": "function"
    },
    {
      "inputs": [],
      "name": "paused",
      "outputs": [
        {
          "internalType": "bool",
          "name": "",
          "type": "bool"
        }
      ],
      "stateMutability": "view",
      "type": "function"
    },
    {
      "inputs": [],
      "name": "renounceOwnership",
      "outputs": [],
      "stateMutability": "nonpayable",
      "type": "function"
    },
    {
      "inputs": [],
      "name": "symbol",
      "outputs": [
        {
          "internalType": "string",
          "name": "",
          "type": "string"
        }
      ],
      "stateMutability": "view",
      "type": "function"
    },
    {
      "inputs": [],
      "name": "tokenName",
      "outputs": [
        {
          "internalType": "string",
          "name": "",
          "type": "string"
        }
      ],
      "stateMutability": "view",
      "type": "function"
    },
    {
      "inputs": [],
      "name": "tokenSymbol",
      "outputs": [
        {
          "internalType": "string",
          "name": "",
          "type": "string"
        }
      ],
      "stateMutability": "view",
      "type": "function"
    },
    {
      "inputs": [],
      "name": "totalSupply",
      "outputs": [
        {
          "internalType": "uint256",
          "name": "",
          "type": "uint256"
        }
      ],
      "stateMutability": "view",
      "type": "function"
    },
    {
      "inputs": [
        {
          "internalType": "address",
          "name": "to",
          "type": "address"
        },
        {
          "internalType": "uint256",
          "name": "amount",
          "type": "uint256"
        }
      ],
      "name": "transfer",
      "outputs": [
        {
          "internalType": "bool",
          "name": "",
          "type": "bool"
        }
      ],
      "stateMutability": "nonpayable",
      "type": "function"
    },
    {
      "inputs": [
        {
          "internalType": "address",
          "name": "from",
          "type": "address"
        },
        {
          "internalType": "address",
          "name": "to",
          "type": "address"
        },
        {
          "internalType": "uint256",
          "name": "amount",
          "type": "uint256"
        }
      ],
      "name": "transferFrom",
      "outputs": [
        {
          "internalType": "bool",
          "name": "",
          "type": "bool"
        }
      ],
      "stateMutability": "nonpayable",
      "type": "function"
    },
    {
      "inputs": [
        {
          "internalType": "address",
          "name": "newOwner",
          "type": "address"
        }
      ],
      "name": "transferOwnership",
      "outputs": [],
      "stateMutability": "nonpayable",
      "type": "function"
    },
    {
      "inputs": [
        {
          "internalType": "address",
          "name": "to",
          "type": "address"
        },
        {
          "internalType": "uint256",
          "name": "amount",
          "type": "uint256"
        }
      ],
      "name": "mint",
      "outputs": [],
      "stateMutability": "nonpayable",
      "type": "function"
    },
    {
      "inputs": [],
      "name": "pause",
      "outputs": [],
      "stateMutability": "nonpayable",
      "type": "function"
    },
    {
      "inputs": [],
      "name": "unpause",
      "outputs": [],
      "stateMutability": "nonpayable",
      "type": "function"
    }
  ],
  "bytecode": "0x60806040526040518060400160405280600e81526020017f566963656e7465204761726369610000000000000000000000000000000000008152506006908051906020019062000051929190620005cc565b506040518060400160405280600781526020017f564943454e544500000000000000000000000000000000000000000000000000815250600790805190602001906200009f929190620005cc565b50348015620000ad57600080fd5b5060405162002d9138038062002d918339818101604052810190620000d39190620006bc565b60068054620000e2906200071d565b80601f016020809104026020016040519081016040528092919081815260200182805462000110906200071d565b8015620001615780601f10620001355761010080835404028352916020019162000161565b820191906000526020600020905b8154815290600101906020018083116200014357829003601f168201915b50505050506007805462000175906200071d565b80601f0160208091040260200160405190810160405280929190818152602001828054620001a3906200071d565b8015620001f45780601f10620001c857610100808354040283529160200191620001f4565b820191906000526020600020905b815481529060010190602001808311620001d657829003601f168201915b5050505050816003908051906020019062000211929190620005cc565b5080600490805190602001906200022a929190620005cc565b5050506000600560006101000a81548160ff021916908315150217905550620002686200025c620002d760201b60201c565b620002df60201b60201c565b6000811015620002af576040517f08c379a0000000000000000000000000000000000000000000000000000000008152600401620002a690620007da565b60405180910390fd5b620002d0620002c3620002d760201b60201c565b82620003a560201b60201c565b50620009c0565b600033905090565b6000600560019054906101000a900473ffffffffffffffffffffffffffffffffffffffff16905081600560016101000a81548173ffffffffffffffffffffffffffffffffffffffff021916908373ffffffffffffffffffffffffffffffffffffffff1602179055508173ffffffffffffffffffffffffffffffffffffffff168173ffffffffffffffffffffffffffffffffffffffff167f8be0079c531659141344cd1fd0a4f28419497f9722a3daafe3b4186f6b6457e060405160405180910390a35050565b600073ffffffffffffffffffffffffffffffffffffffff168273ffffffffffffffffffffffffffffffffffffffff16141562000418576040517f08c379a00000000000000000000000000000000000000000000000000000000081526004016200040f906200084c565b60405180910390fd5b6200042c600083836200051e60201b60201c565b80600260008282546200044091906200089d565b92505081905550806000808473ffffffffffffffffffffffffffffffffffffffff1673ffffffffffffffffffffffffffffffffffffffff16815260200190815260200160002060008282546200049791906200089d565b925050819055508173ffffffffffffffffffffffffffffffffffffffff16600073ffffffffffffffffffffffffffffffffffffffff167fddf252ad1be2c89b69c2b068fc378daa952ba7f163c4a11628f55a4df523b3ef83604051620004fe91906200090b565b60405180910390a36200051a600083836200053b60201b60201c565b5050565b620005368383836200054060201b62000ccb1760201c565b505050565b505050565b62000558838383620005b060201b62000d231760201c565b62000568620005b560201b60201c565b15620005ab576040517f08c379a0000000000000000000000000000000000000000000000000000000008152600401620005a2906200099e565b60405180910390fd5b505050565b505050565b6000600560009054906101000a900460ff16905090565b828054620005da906200071d565b90600052602060002090601f016020900481019282620005fe57600085556200064a565b82601f106200061957805160ff19168380011785556200064a565b828001600101855582156200064a579182015b82811115620006495782518255916020019190600101906200062c565b5b5090506200065991906200065d565b5090565b5b80821115620006785760008160009055506001016200065e565b5090565b600080fd5b6000819050919050565b620006968162000681565b8114620006a257600080fd5b50565b600081519050620006b6816200068b565b92915050565b600060208284031215620006d557620006d46200067c565b5b6000620006e584828501620006a5565b91505092915050565b7f4e487b7100000000000000000000000000000000000000000000000000000000600052602260045260246000fd5b600060028204905060018216806200073657607f821691505b602082108114156200074d576200074c620006ee565b5b50919050565b600082825260208201905092915050565b7f45524332303a20696e697469616c20737570706c792063616e6e6f742062652060008201527f6c6f776572207468616e207a65726f0000000000000000000000000000000000602082015250565b6000620007c2602f8362000753565b9150620007cf8262000764565b604082019050919050565b60006020820190508181036000830152620007f581620007b3565b9050919050565b7f45524332303a206d696e7420746f20746865207a65726f206164647265737300600082015250565b600062000834601f8362000753565b91506200084182620007fc565b602082019050919050565b60006020820190508181036000830152620008678162000825565b9050919050565b7f4e487b7100000000000000000000000000000000000000000000000000000000600052601160045260246000fd5b6000620008aa8262000681565b9150620008b78362000681565b9250827fffffffffffffffffffffffffffffffffffffffffffffffffffffffffffffffff03821115620008ef57620008ee6200086e565b5b828201905092915050565b620009058162000681565b82525050565b6000602082019050620009226000830184620008fa565b92915050565b7f45524332305061757361626c653a20746f6b656e207472616e7366657220776860008201527f696c652070617573656400000000000000000000000000000000000000000000602082015250565b600062000986602a8362000753565b9150620009938262000928565b604082019050919050565b60006020820190508181036000830152620009b98162000977565b9050919050565b6123c180620009d06000396000f3fe608060405234801561001057600080fd5b50600436106101425760003560e01c806370a08231116100b85780638da5cb5b1161007c5780638da5cb5b1461032d57806395d89b411461034b578063a457c2d714610369578063a9059cbb14610399578063dd62ed3e146103c9578063f2fde38b146103f957610142565b806370a08231146102af578063715018a6146102df57806379cc6790146102e95780637b61c320146103055780638456cb591461032357610142565b8063395093511161010a57806339509351146102015780633f4ba83a1461023157806340c10f191461023b57806342966c68146102575780635c975abb146102735780636c02a9311461029157610142565b806306fdde0314610147578063095ea7b31461016557806318160ddd1461019557806323b872dd146101b3578063313ce567146101e3575b600080fd5b61014f610415565b60405161015c91906117f8565b60405180910390f35b61017f600480360381019061017a91906118b3565b6104a7565b60405161018c919061190e565b60405180910390f35b61019d6104ca565b6040516101aa9190611938565b60405180910390f35b6101cd60048036038101906101c89190611953565b6104d4565b6040516101da919061190e565b60405180910390f35b6101eb610503565b6040516101f891906119c2565b60405180910390f35b61021b600480360381019061021691906118b3565b61050c565b604051610228919061190e565b60405180910390f35b6102396105b6565b005b610255600480360381019061025091906118b3565b61063c565b005b610271600480360381019061026c91906119dd565b6106c6565b005b61027b6106da565b604051610288919061190e565b60405180910390f35b6102996106f1565b6040516102a691906117f8565b60405180910390f35b6102c960048036038101906102c49190611a0a565b61077f565b6040516102d69190611938565b60405180910390f35b6102e76107c7565b005b61030360048036038101906102fe91906118b3565b61084f565b005b61030d61086f565b60405161031a91906117f8565b60405180910390f35b61032b6108fd565b005b610335610983565b6040516103429190611a46565b60405180910390f35b6103536109ad565b60405161036091906117f8565b60405180910390f35b610383600480360381019061037e91906118b3565b610a3f565b604051610390919061190e565b60405180910390f35b6103b360048036038101906103ae91906118b3565b610b29565b6040516103c0919061190e565b60405180910390f35b6103e360048036038101906103de9190611a61565b610b4c565b6040516103f09190611938565b60405180910390f35b610413600480360381019061040e9190611a0a565b610bd3565b005b60606003805461042490611ad0565b80601f016020809104026020016040519081016040528092919081815260200182805461045090611ad0565b801561049d5780601f106104725761010080835404028352916020019161049d565b820191906000526020600020905b81548152906001019060200180831161048057829003601f168201915b5050505050905090565b6000806104b2610d28565b90506104bf818585610d30565b600191505092915050565b6000600254905090565b6000806104df610d28565b90506104ec858285610efb565b6104f7858585610f87565b60019150509392505050565b60006012905090565b600080610517610d28565b90506105ab818585600160008673ffffffffffffffffffffffffffffffffffffffff1673ffffffffffffffffffffffffffffffffffffffff16815260200190815260200160002060008973ffffffffffffffffffffffffffffffffffffffff1673ffffffffffffffffffffffffffffffffffffffff168152602001908152602001600020546105a69190611b31565b610d30565b600191505092915050565b6105be610d28565b73ffffffffffffffffffffffffffffffffffffffff166105dc610983565b73ffffffffffffffffffffffffffffffffffffffff1614610632576040517f08c379a000000000000000000000000000000000000000000000000000000000815260040161062990611bd3565b60405180910390fd5b61063a611208565b565b610644610d28565b73ffffffffffffffffffffffffffffffffffffffff16610662610983565b73ffffffffffffffffffffffffffffffffffffffff16146106b8576040517f08c379a00000000000000000000000000000000000000000000000000000000081526004016106af90611bd3565b60405180910390fd5b6106c282826112aa565b5050565b6106d76106d1610d28565b8261140a565b50565b6000600560009054906101000a900460ff16905090565b600680546106fe90611ad0565b80601f016020809104026020016040519081016040528092919081815260200182805461072a90611ad0565b80156107775780601f1061074c57610100808354040283529160200191610777565b820191906000526020600020905b81548152906001019060200180831161075a57829003601f168201915b505050505081565b60008060008373ffffffffffffffffffffffffffffffffffffffff1673ffffffffffffffffffffffffffffffffffffffff168152602001908152602001600020549050919050565b6107cf610d28565b73ffffffffffffffffffffffffffffffffffffffff166107ed610983565b73ffffffffffffffffffffffffffffffffffffffff1614610843576040517f08c379a000000000000000000000000000000000000000000000000000000000815260040161083a90611bd3565b60405180910390fd5b61084d60006115e1565b565b6108618261085b610d28565b83610efb565b61086b828261140a565b5050565b6007805461087c90611ad0565b80601f01602080910402602001604051908101604052809291908181526020018280546108a890611ad0565b80156108f55780601f106108ca576101008083540402835291602001916108f5565b820191906000526020600020905b8154815290600101906020018083116108d857829003601f168201915b505050505081565b610905610d28565b73ffffffffffffffffffffffffffffffffffffffff16610923610983565b73ffffffffffffffffffffffffffffffffffffffff1614610979576040517f08c379a000000000000000000000000000000000000000000000000000000000815260040161097090611bd3565b60405180910390fd5b6109816116a7565b565b6000600560019054906101000a900473ffffffffffffffffffffffffffffffffffffffff16905090565b6060600480546109bc90611ad0565b80601f01602080910402602001604051908101604052809291908181526020018280546109e890611ad0565b8015610a355780601f10610a0a57610100808354040283529160200191610a35565b820191906000526020600020905b815481529060010190602001808311610a1857829003601f168201915b5050505050905090565b600080610a4a610d28565b90506000600160008373ffffffffffffffffffffffffffffffffffffffff1673ffffffffffffffffffffffffffffffffffffffff16815260200190815260200160002060008673ffffffffffffffffffffffffffffffffffffffff1673ffffffffffffffffffffffffffffffffffffffff16815260200190815260200160002054905083811015610b10576040517f08c379a0000000000000000000000000000000000000000000000000000000008152600401610b0790611c65565b60405180910390fd5b610b1d8286868403610d30565b60019250505092915050565b600080610b34610d28565b9050610b41818585610f87565b600191505092915050565b6000600160008473ffffffffffffffffffffffffffffffffffffffff1673ffffffffffffffffffffffffffffffffffffffff16815260200190815260200160002060008373ffffffffffffffffffffffffffffffffffffffff1673ffffffffffffffffffffffffffffffffffffffff16815260200190815260200160002054905092915050565b610bdb610d28565b73ffffffffffffffffffffffffffffffffffffffff16610bf9610983565b73ffffffffffffffffffffffffffffffffffffffff1614610c4f576040517f08c379a0000000000000000000000000000000000000000000000000000000008152600401610c4690611bd3565b60405180910390fd5b600073ffffffffffffffffffffffffffffffffffffffff168173ffffffffffffffffffffffffffffffffffffffff161415610cbf576040517f08c379a0000000000000000000000000000000000000000000000000000000008152600401610cb690611cf7565b60405180910390fd5b610cc8816115e1565b50565b610cd6838383610d23565b610cde6106da565b15610d1e576040517f08c379a0000000000000000000000000000000000000000000000000000000008152600401610d1590611d89565b60405180910390fd5b505050565b505050565b600033905090565b600073ffffffffffffffffffffffffffffffffffffffff168373ffffffffffffffffffffffffffffffffffffffff161415610da0576040517f08c379a0000000000000000000000000000000000000000000000000000000008152600401610d9790611e1b565b60405180910390fd5b600073ffffffffffffffffffffffffffffffffffffffff168273ffffffffffffffffffffffffffffffffffffffff161415610e10576040517f08c379a0000000000000000000000000000000000000000000000000000000008152600401610e0790611ead565b60405180910390fd5b80600160008573ffffffffffffffffffffffffffffffffffffffff1673ffffffffffffffffffffffffffffffffffffffff16815260200190815260200160002060008473ffffffffffffffffffffffffffffffffffffffff1673ffffffffffffffffffffffffffffffffffffffff168152602001908152602001600020819055508173ffffffffffffffffffffffffffffffffffffffff168373ffffffffffffffffffffffffffffffffffffffff167f8c5be1e5ebec7d5bd14f71427d1e84f3dd0314c0f7b2291e5b200ac8c7c3b92583604051610eee9190611938565b60405180910390a3505050565b6000610f078484610b4c565b90507fffffffffffffffffffffffffffffffffffffffffffffffffffffffffffffffff8114610f815781811015610f73576040517f08c379a0000000000000000000000000000000000000000000000000000000008152600401610f6a90611f19565b60405180910390fd5b610f808484848403610d30565b5b50505050565b600073ffffffffffffffffffffffffffffffffffffffff168373ffffffffffffffffffffffffffffffffffffffff161415610ff7576040517f08c379a0000000000000000000000000000000000000000000000000000000008152600401610fee90611fab565b60405180910390fd5b600073ffffffffffffffffffffffffffffffffffffffff168273ffffffffffffffffffffffffffffffffffffffff161415611067576040517f08c379a000000000000000000000000000000000000000000000000000000000815260040161105e9061203d565b60405180910390fd5b61107283838361174a565b60008060008573ffffffffffffffffffffffffffffffffffffffff1673ffffffffffffffffffffffffffffffffffffffff168152602001908152602001600020549050818110156110f8576040517f08c379a00000000000000000000000000000000000000000000000000000000081526004016110ef906120cf565b60405180910390fd5b8181036000808673ffffffffffffffffffffffffffffffffffffffff1673ffffffffffffffffffffffffffffffffffffffff16815260200190815260200160002081905550816000808573ffffffffffffffffffffffffffffffffffffffff1673ffffffffffffffffffffffffffffffffffffffff168152602001908152602001600020600082825461118b9190611b31565b925050819055508273ffffffffffffffffffffffffffffffffffffffff168473ffffffffffffffffffffffffffffffffffffffff167fddf252ad1be2c89b69c2b068fc378daa952ba7f163c4a11628f55a4df523b3ef846040516111ef9190611938565b60405180910390a361120284848461175a565b50505050565b6112106106da565b61124f576040517f08c379a00000000000000000000000000000000000000000000000000000000081526004016112469061213b565b60405180910390fd5b6000600560006101000a81548160ff0219169083151502179055507f5db9ee0a495bf2e6ff9c91a7834c1ba4fdd244a5e8aa4e537bd38aeae4b073aa611293610d28565b6040516112a09190611a46565b60405180910390a1565b600073ffffffffffffffffffffffffffffffffffffffff168273ffffffffffffffffffffffffffffffffffffffff16141561131a576040517f08c379a0000000000000000000000000000000000000000000000000000000008152600401611311906121a7565b60405180910390fd5b6113266000838361174a565b80600260008282546113389190611b31565b92505081905550806000808473ffffffffffffffffffffffffffffffffffffffff1673ffffffffffffffffffffffffffffffffffffffff168152602001908152602001600020600082825461138d9190611b31565b925050819055508173ffffffffffffffffffffffffffffffffffffffff16600073ffffffffffffffffffffffffffffffffffffffff167fddf252ad1be2c89b69c2b068fc378daa952ba7f163c4a11628f55a4df523b3ef836040516113f29190611938565b60405180910390a36114066000838361175a565b5050565b600073ffffffffffffffffffffffffffffffffffffffff168273ffffffffffffffffffffffffffffffffffffffff16141561147a576040517f08c379a000000000000000000000000000000000000000000000000000000000815260040161147190612239565b60405180910390fd5b6114868260008361174a565b60008060008473ffffffffffffffffffffffffffffffffffffffff1673ffffffffffffffffffffffffffffffffffffffff1681526020019081526020016000205490508181101561150c576040517f08c379a0000000000000000000000000000000000000000000000000000000008152600401611503906122cb565b60405180910390fd5b8181036000808573ffffffffffffffffffffffffffffffffffffffff1673ffffffffffffffffffffffffffffffffffffffff16815260200190815260200160002081905550816002600082825461156391906122eb565b92505081905550600073ffffffffffffffffffffffffffffffffffffffff168373ffffffffffffffffffffffffffffffffffffffff167fddf252ad1be2c89b69c2b068fc378daa952ba7f163c4a11628f55a4df523b3ef846040516115c89190611938565b60405180910390a36115dc8360008461175a565b505050565b6000600560019054906101000a900473ffffffffffffffffffffffffffffffffffffffff16905081600560016101000a81548173ffffffffffffffffffffffffffffffffffffffff021916908373ffffffffffffffffffffffffffffffffffffffff1602179055508173ffffffffffffffffffffffffffffffffffffffff168173ffffffffffffffffffffffffffffffffffffffff167f8be0079c531659141344cd1fd0a4f28419497f9722a3daafe3b4186f6b6457e060405160405180910390a35050565b6116af6106da565b156116ef576040517f08c379a00000000000000000000000000000000000000000000000000000000081526004016116e69061236b565b60405180910390fd5b6001600560006101000a81548160ff0219169083151502179055507f62e78cea01bee320cd4e420270b5ea74000d11b0c9f74754ebdbfc544b05a258611733610d28565b6040516117409190611a46565b60405180910390a1565b611755838383610ccb565b505050565b505050565b600081519050919050565b600082825260208201905092915050565b60005b8381101561179957808201518184015260208101905061177e565b838111156117a8576000848401525b50505050565b6000601f19601f8301169050919050565b60006117ca8261175f565b6117d4818561176a565b93506117e481856020860161177b565b6117ed816117ae565b840191505092915050565b6000602082019050818103600083015261181281846117bf565b905092915050565b600080fd5b600073ffffffffffffffffffffffffffffffffffffffff82169050919050565b600061184a8261181f565b9050919050565b61185a8161183f565b811461186557600080fd5b50565b60008135905061187781611851565b92915050565b6000819050919050565b6118908161187d565b811461189b57600080fd5b50565b6000813590506118ad81611887565b92915050565b600080604083850312156118ca576118c961181a565b5b60006118d885828601611868565b92505060206118e98582860161189e565b9150509250929050565b60008115159050919050565b611908816118f3565b82525050565b600060208201905061192360008301846118ff565b92915050565b6119328161187d565b82525050565b600060208201905061194d6000830184611929565b92915050565b60008060006060848603121561196c5761196b61181a565b5b600061197a86828701611868565b935050602061198b86828701611868565b925050604061199c8682870161189e565b9150509250925092565b600060ff82169050919050565b6119bc816119a6565b82525050565b60006020820190506119d760008301846119b3565b92915050565b6000602082840312156119f3576119f261181a565b5b6000611a018482850161189e565b91505092915050565b600060208284031215611a2057611a1f61181a565b5b6000611a2e84828501611868565b91505092915050565b611a408161183f565b82525050565b6000602082019050611a5b6000830184611a37565b92915050565b60008060408385031215611a7857611a7761181a565b5b6000611a8685828601611868565b9250506020611a9785828601611868565b9150509250929050565b7f4e487b7100000000000000000000000000000000000000000000000000000000600052602260045260246000fd5b60006002820490506001821680611ae857607f821691505b60208210811415611afc57611afb611aa1565b5b50919050565b7f4e487b7100000000000000000000000000000000000000000000000000000000600052601160045260246000fd5b6000611b3c8261187d565b9150611b478361187d565b9250827fffffffffffffffffffffffffffffffffffffffffffffffffffffffffffffffff03821115611b7c57611b7b611b02565b5b828201905092915050565b7f4f776e61626c653a2063616c6c6572206973206e6f7420746865206f776e6572600082015250565b6000611bbd60208361176a565b9150611bc882611b87565b602082019050919050565b60006020820190508181036000830152611bec81611bb0565b9050919050565b7f45524332303a2064656372656173656420616c6c6f77616e63652062656c6f7760008201527f207a65726f000000000000000000000000000000000000000000000000000000602082015250565b6000611c4f60258361176a565b9150611c5a82611bf3565b604082019050919050565b60006020820190508181036000830152611c7e81611c42565b9050919050565b7f4f776e61626c653a206e6577206f776e657220697320746865207a65726f206160008201527f6464726573730000000000000000000000000000000000000000000000000000602082015250565b6000611ce160268361176a565b9150611cec82611c85565b604082019050919050565b60006020820190508181036000830152611d1081611cd4565b9050919050565b7f45524332305061757361626c653a20746f6b656e207472616e7366657220776860008201527f696c652070617573656400000000000000000000000000000000000000000000602082015250565b6000611d73602a8361176a565b9150611d7e82611d17565b604082019050919050565b60006020820190508181036000830152611da281611d66565b9050919050565b7f45524332303a20617070726f76652066726f6d20746865207a65726f2061646460008201527f7265737300000000000000000000000000000000000000000000000000000000602082015250565b6000611e0560248361176a565b9150611e1082611da9565b604082019050919050565b60006020820190508181036000830152611e3481611df8565b9050919050565b7f45524332303a20617070726f766520746f20746865207a65726f20616464726560008201527f7373000000000000000000000000000000000000000000000000000000000000602082015250565b6000611e9760228361176a565b9150611ea282611e3b565b604082019050919050565b60006020820190508181036000830152611ec681611e8a565b9050919050565b7f45524332303a20696e73756666696369656e7420616c6c6f77616e6365000000600082015250565b6000611f03601d8361176a565b9150611f0e82611ecd565b602082019050919050565b60006020820190508181036000830152611f3281611ef6565b9050919050565b7f45524332303a207472616e736665722066726f6d20746865207a65726f20616460008201527f6472657373000000000000000000000000000000000000000000000000000000602082015250565b6000611f9560258361176a565b9150611fa082611f39565b604082019050919050565b60006020820190508181036000830152611fc481611f88565b9050919050565b7f45524332303a207472616e7366657220746f20746865207a65726f206164647260008201527f6573730000000000000000000000000000000000000000000000000000000000602082015250565b600061202760238361176a565b915061203282611fcb565b604082019050919050565b600060208201905081810360008301526120568161201a565b9050919050565b7f45524332303a207472616e7366657220616d6f756e742065786365656473206260008201527f616c616e63650000000000000000000000000000000000000000000000000000602082015250565b60006120b960268361176a565b91506120c48261205d565b604082019050919050565b600060208201905081810360008301526120e8816120ac565b9050919050565b7f5061757361626c653a206e6f7420706175736564000000000000000000000000600082015250565b600061212560148361176a565b9150612130826120ef565b602082019050919050565b6000602082019050818103600083015261215481612118565b9050919050565b7f45524332303a206d696e7420746f20746865207a65726f206164647265737300600082015250565b6000612191601f8361176a565b915061219c8261215b565b602082019050919050565b600060208201905081810360008301526121c081612184565b9050919050565b7f45524332303a206275726e2066726f6d20746865207a65726f2061646472657360008201527f7300000000000000000000000000000000000000000000000000000000000000602082015250565b600061222360218361176a565b915061222e826121c7565b604082019050919050565b6000602082019050818103600083015261225281612216565b9050919050565b7f45524332303a206275726e20616d6f756e7420657863656564732062616c616e60008201527f6365000000000000000000000000000000000000000000000000000000000000602082015250565b60006122b560228361176a565b91506122c082612259565b604082019050919050565b600060208201905081810360008301526122e4816122a8565b9050919050565b60006122f68261187d565b91506123018361187d565b92508282101561231457612313611b02565b5b828203905092915050565b7f5061757361626c653a2070617573656400000000000000000000000000000000600082015250565b600061235560108361176a565b91506123608261231f565b602082019050919050565b6000602082019050818103600083015261238481612348565b905091905056fea26469706673582212201b67ff8d9ebd55b6c89ccc1aec839e46b561c8d130258ec94d1ccd3c3c6a68ae64736f6c634300080c0033",
  "immutableReferences": {},
  "source": "pragma solidity 0.8.12;\r\n\r\nimport \"@openzeppelin/contracts/token/ERC20/ERC20.sol\";\r\nimport \"@openzeppelin/contracts/access/Ownable.sol\";\r\nimport \"@openzeppelin/contracts/token/ERC20/extensions/ERC20Burnable.sol\";\r\nimport \"@openzeppelin/contracts/token/ERC20/extensions/ERC20Pausable.sol\";\r\n\r\ncontract VicenteToken is ERC20, ERC20Burnable, ERC20Pausable, Ownable {\r\n    string public tokenName = \"Vicente Garcia\";\r\n    string public tokenSymbol = \"VICENTE\";\r\n\r\n    constructor (uint256 _initialSupply) ERC20(tokenName, tokenSymbol)\r\n    {\r\n        require(_initialSupply >= 0, \"ERC20: initial supply cannot be lower than zero\");\r\n\r\n        _mint(_msgSender(), _initialSupply);\r\n    }\r\n\r\n    /**\r\n     * @dev Creates `amount` new tokens for `to`.\r\n     *\r\n     * See {ERC20-_mint}.\r\n     *\r\n     * Requirements:\r\n     *\r\n     * - the caller must own the contract.\r\n     */\r\n    function mint(address to, uint256 amount) public virtual onlyOwner {\r\n        _mint(to, amount);\r\n    }\r\n\r\n    /**\r\n     * @dev Pauses all token transfers.\r\n     *\r\n     * See {ERC20Pausable} and {Pausable-_pause}.\r\n     *\r\n     * Requirements:\r\n     *\r\n     * - the caller must own the contract.\r\n     */\r\n    function pause() public virtual onlyOwner {\r\n        _pause();\r\n    }\r\n\r\n    /**\r\n     * @dev Unpauses all token transfers.\r\n     *\r\n     * See {ERC20Pausable} and {Pausable-_unpause}.\r\n     *\r\n     * Requirements:\r\n     *\r\n     * - the caller must own the contract.\r\n     */\r\n    function unpause() public virtual onlyOwner {\r\n        _unpause();\r\n    }\r\n\r\n    function _beforeTokenTransfer(address from, address to, uint256 amount) internal virtual override(ERC20, ERC20Pausable) {\r\n        super._beforeTokenTransfer(from, to, amount);\r\n    }\r\n}",
  "sourcePath": "C:\\Users\\Vicente\\source\\repos\\VicenteToken\\contracts\\VicenteToken.sol",
  "compiler": {
    "name": "solc",
    "version": "0.8.12+commit.f00d7308.Emscripten.clang"
  },
  "schemaVersion": "3.4.5",
  "updatedAt": "2022-03-09T11:47:56.555Z",
  "devdoc": {
    "kind": "dev",
    "methods": {
      "allowance(address,address)": {
        "details": "See {IERC20-allowance}."
      },
      "approve(address,uint256)": {
        "details": "See {IERC20-approve}. NOTE: If `amount` is the maximum `uint256`, the allowance is not updated on `transferFrom`. This is semantically equivalent to an infinite approval. Requirements: - `spender` cannot be the zero address."
      },
      "balanceOf(address)": {
        "details": "See {IERC20-balanceOf}."
      },
      "burn(uint256)": {
        "details": "Destroys `amount` tokens from the caller. See {ERC20-_burn}."
      },
      "burnFrom(address,uint256)": {
        "details": "Destroys `amount` tokens from `account`, deducting from the caller's allowance. See {ERC20-_burn} and {ERC20-allowance}. Requirements: - the caller must have allowance for ``accounts``'s tokens of at least `amount`."
      },
      "decimals()": {
        "details": "Returns the number of decimals used to get its user representation. For example, if `decimals` equals `2`, a balance of `505` tokens should be displayed to a user as `5.05` (`505 / 10 ** 2`). Tokens usually opt for a value of 18, imitating the relationship between Ether and Wei. This is the value {ERC20} uses, unless this function is overridden; NOTE: This information is only used for _display_ purposes: it in no way affects any of the arithmetic of the contract, including {IERC20-balanceOf} and {IERC20-transfer}."
      },
      "decreaseAllowance(address,uint256)": {
        "details": "Atomically decreases the allowance granted to `spender` by the caller. This is an alternative to {approve} that can be used as a mitigation for problems described in {IERC20-approve}. Emits an {Approval} event indicating the updated allowance. Requirements: - `spender` cannot be the zero address. - `spender` must have allowance for the caller of at least `subtractedValue`."
      },
      "increaseAllowance(address,uint256)": {
        "details": "Atomically increases the allowance granted to `spender` by the caller. This is an alternative to {approve} that can be used as a mitigation for problems described in {IERC20-approve}. Emits an {Approval} event indicating the updated allowance. Requirements: - `spender` cannot be the zero address."
      },
      "mint(address,uint256)": {
        "details": "Creates `amount` new tokens for `to`. See {ERC20-_mint}. Requirements: - the caller must own the contract."
      },
      "name()": {
        "details": "Returns the name of the token."
      },
      "owner()": {
        "details": "Returns the address of the current owner."
      },
      "pause()": {
        "details": "Pauses all token transfers. See {ERC20Pausable} and {Pausable-_pause}. Requirements: - the caller must own the contract."
      },
      "paused()": {
        "details": "Returns true if the contract is paused, and false otherwise."
      },
      "renounceOwnership()": {
        "details": "Leaves the contract without owner. It will not be possible to call `onlyOwner` functions anymore. Can only be called by the current owner. NOTE: Renouncing ownership will leave the contract without an owner, thereby removing any functionality that is only available to the owner."
      },
      "symbol()": {
        "details": "Returns the symbol of the token, usually a shorter version of the name."
      },
      "totalSupply()": {
        "details": "See {IERC20-totalSupply}."
      },
      "transfer(address,uint256)": {
        "details": "See {IERC20-transfer}. Requirements: - `to` cannot be the zero address. - the caller must have a balance of at least `amount`."
      },
      "transferFrom(address,address,uint256)": {
        "details": "See {IERC20-transferFrom}. Emits an {Approval} event indicating the updated allowance. This is not required by the EIP. See the note at the beginning of {ERC20}. NOTE: Does not update the allowance if the current allowance is the maximum `uint256`. Requirements: - `from` and `to` cannot be the zero address. - `from` must have a balance of at least `amount`. - the caller must have allowance for ``from``'s tokens of at least `amount`."
      },
      "transferOwnership(address)": {
        "details": "Transfers ownership of the contract to a new account (`newOwner`). Can only be called by the current owner."
      },
      "unpause()": {
        "details": "Unpauses all token transfers. See {ERC20Pausable} and {Pausable-_unpause}. Requirements: - the caller must own the contract."
      }
    },
    "version": 1
  },
  "userdoc": {
    "kind": "user",
    "methods": {},
    "version": 1
  }
}